:020000040800F2
:1000000080450020CD410008C5C00008B941000866
:10001000B9410008B9410008B9410008B9410008D8
:100020000000000000000000000000000142000885
:10003000B941000800000000C94300081D7C000809
:10004000414400084144000841440008414400087C
:10005000414400084144000841440008414400086C
:10006000414400084144000841440008414400085C
:10007000414400084144000841440008414400084C
:10008000414400084144000841440008414400083C
:10009000414400084144000841440008414400082C
:1000A000414400084144000841440008414400081C
:1000B000414400084144000841440008414400080C
:1000C00041440008414400084144000841440008FC
:1000D00041440008414400084144000841440008EC
:1000E00041440008414400084144000841440008DC
:1000F00041440008414400084144000841440008CC
:1001000041440008414400084144000841440008BB
:1001100041440008414400084144000841440008AB
:10012000414400084144000841440008414400089B
:10013000414400084144000841440008414400088B
:10014000414400084144000841440008414400087B
:10015000414400084144000841440008414400086B
:10016000414400084144000841440008414400085B
:10017000414400084144000841440008414400084B
:10018000414400084144000841440008414400083B
:10019000414400084144000841440008414400082B
:1001A000414400084144000841440008414400081B
:1001B000414400084144000841440008414400080B
:1001C00041440008414400084144000841440008FB
:1001D00041440008414400084144000841440008EB
:1001E00041440008414400084144000841440008DB
:1001F00041440008414400084144000841440008CB
:1002000041440008414400084144000841440008BA
:1002100041440008414400084144000841440008AA
:10022000414400084144000841440008414400089A
:10023000414400084144000841440008414400088A
:04024000414400082D
:1002440053B94AB9002908BF00281CBF4FF0FF3139
:100254004FF0FF3000F00CB8ADF1080C6DE904CE9E
:1002640000F010F8DDF804E0DDE9022304B0704783
:10027400704700BF034613F8012B002AFBD1181A5C
:10028400013870472DE9F0478C468E46089E154686
:1002940004461946002B40F0D080724547D9B2FA83
:1002A40082F74FB1C7F120030EFA07FCBD40BC40F2
:1002B40020FA03F343EA0C0C4FEA154EA8B2230CC0
:1002C400BCFBFEF80EFB18CC08FB00F943EA0C4318
:1002D400994528D9EB1808F1FF3204D2994502D97F
:1002E400A8F102022B44A3EB0903A4B2B3FBFEFC66
:1002F4000EFB1C330CFB00F044EA0344A04214D967
:100304002C190CF1FF3304D2A04202D9ACF1020340
:100314002C44241A43EA02401EB1FC4000233460FA
:100324007360BDE8F0874246DDE76346F1E7002AE3
:1003340079D0B2FA82F3002B3FD01946C1F12003E1
:1003440002FA01F500FA01F42EFA03F20EFA01FEA4
:1003540020FA03F3AFB243EA0E034FEA154EB2FBA1
:10036400FEFC0EFB1C201A0C0CFB07F842EA0042B0
:1003740090455AD9AA180CF1FF3004D2904502D9FD
:10038400ACF102002A44A2EB08029BB2B2FBFEFCD1
:100394000EFB1C220CFB07F743EA02439F4246D99B
:1003A400EB180CF1FF3204D29F4202D9ACF10202E5
:1003B4002B44DB1B42EA004202E0AEEB02030122C3
:1003C4004FEA154EAFB2200CB3FBFEFC0EFB1C3300
:1003D4000CFB07F840EA034398452AD9EB180CF1C3
:1003E400FF3004D2984502D9ACF102002B44A3EBB0
:1003F4000803A4B2B3FBFEFC0EFB1C330CFB07F793
:1004040044EA0344A74216D92C190CF1FF3304D251
:10041400A74202D9ACF102032C44E41B43EA004096
:100424000F46114678E71F2188E76046ABE762462E
:10043400BFE76046DBE76346EFE7734506D916B9C5
:10044400002108466DE7C6E9000EF9E7B3FA83F721
:1004540087B9734501D3824207D8841A6EEB03032C
:1004640001209C461EB900215BE73846FAE7C6E93D
:10047400004CF8E7C7F1200CBB4000FA07F422FA5D
:100484000CF520FA0CF1BA401D432EFA0CF30EFAC7
:1004940007FE4FEA154941EA0E011FFA85FEB3FB38
:1004A400F9F809FB18300B0C08FB0EFA43EA004379
:1004B4009A4540D9EB1808F1FF3004D29A4502D985
:1004C400A8F102002B44A3EB0A0389B2B3FBF9F8A9
:1004D40009FB183308FB0EFE41EA03418E452CD973
:1004E400691808F1FF3304D28E4502D9A8F102033A
:1004F400294443EA0040A1EB0E01A0FB02984145C8
:10050400CE46434602D306D14C4504D20138B9EB5A
:10051400020E68EB0503002EA5D0B4EB0E0261EBCE
:10052400030101FA0CFC22FA07F3F9404CEA030335
:10053400C6E9003197E74046C5E74346D9E70000DE
:100544001FB503211A4A1B480BF001FD1A4B01ACDD
:1005540093E8070084E8070018480CF020FC48B929
:100564000121174A13480BF0F2FC4FF0FF342046E8
:1005740004B010BD134801F09DF8204600F0B4FB10
:10058400044630B1012103460F4A0A480BF0E8FC47
:10059400EDE700F06FF800F0ADF800F0E9FA00F0D4
:1005A4000FFC002142F2107009F0ACFEF9E700BF25
:1005B40000DC000848D80008B0D8000898D2000829
:1005C40024DC00088FB7000839DC000808B50321D3
:1005D400044A05480BF0BBFC002142F2107009F0FC
:1005E40091FEF9E758DC000818D8000808B5064A57
:1005F400022106480BF0ABFC022106200BF08CF91B
:100604006FF01B0008BD00BF72DC000818D800089A
:1006140008B501460022002304480CF0D3FB18B1AE
:10062400FFF7E4FF6FF01B0008BD00BF940100203A
:1006340000B593B003210B4A0B480BF088FC4FF034
:10064400FF324FF0FF336946084807F0E3FF002804
:10065400F5D19DF807300321054A03480BF080FCCF
:10066400EDE700BF9ADC000818D8000894010020C8
:10067400B4DC0008F0B5164989B0022001F036F860
:1006840000260027002405254FF48062CDE9066783
:10069400CDE90354CDE901440E4B0F4900940F48B2
:1006A40008F0EAFE4FF48062CDE90667CDE9035411
:1006B400CDE901440A4B0B4900940B4808F0DCFED9
:1006C40003210A4A0A480BF042FC204609B0F0BD57
:1006D400150600083506000840180020D001002047
:1006E400D1050008401C002050020020F7DC00085F
:1006F40018D8000808B50321024A03480BF027FC68
:10070400002008BD2ADD000820D8000810B560B913
:100714001148B823114A12490BF07BF911480BF028
:1007240078F9B8210D480BF06BF983680E4A9342AF
:1007340006D20E4A934203D3BDE810405B681847C3
:10074400B823064A0A4904480BF063F909490A48E0
:100754000BF05FF9E5E700BFB5DD000863DD0008D5
:10076400A2DD0008D2DD0008B8D700086CD7000865
:10077400E3DD0008D5F2000820DF000845F2AA53A3
:10078400F0B585B08DF807008DF806208DF80E20A1
:100794008DF80F0001220E464FF6FF700DF1060191
:1007A400ADF80C300BF0E3FC01220DF107010BF066
:1007B400DEFC9DF8062004461AB131460BF0D7FC46
:1007C4000446002503AF17F8011B0E480135FFF757
:1007D4009DFF042DF7D100259DF80630AB420ADCBD
:1007E400E1B20848FFF792FF0648C4F30721FFF778
:1007F4008DFF05B0F0BD715D0248FFF787FF01353D
:10080400EAE700BF60D2000873B5044670B9324805
:100814004FF4DE73314A32490BF0FBF831480BF0E8
:10082400F8F84FF4DE712D480BF0EAF883682E4D8A
:10083400AB4220D22D4EB3421DD35B6C3BBBA368AD
:10084400AB4226D2B34224D35B6B83BBA368AB42D7
:1008540033D2B34231D39B696BB3012220460DF1ED
:10086400070198470128024625D10DF107012048C8
:1008740002F0AEF8EAE74FF4DE73184A1D49164851
:100884000BF0C7F81C491D480BF0C3F8C9E798479B
:10089400D5E74FF4C273114A16490F480BF0B9F863
:1008A400154916480BF0B5F84FF4C271BBE7204662
:1008B40098470028CAD102B070BD40F20D13074A10
:1008C4000C4905480BF0A5F80B490C480BF0A1F8AE
:1008D40040F20D11A7E700BFB5DD000863DD000895
:1008E400A2DD0008D2DD0008B8D700086CD70008E4
:1008F40000000020E3DD0008D5F2000820DF000836
:1009040070B570B91F4840F2EA331F4A1F490BF013
:1009140080F81F480BF07DF840F2EA311A480BF0DA
:100924006FF884681B4A944216D21B4A944213D32C
:10093400012243688A401B6806691A4218D1174984
:100944004FF48263104A0F480BF063F814480BF01D
:1009540060F84FF48261E1E740F2EA330A4A114950
:1009640008480BF056F8104910480BF052F8D3E73A
:10097400336823EA0203336023684FF4C022BDE8DE
:1009840070401847B5DD000837DF000868DF00084D
:10099400D2DD000840D700081CD70008C0E00008DA
:1009A400FEE000087CDF0008BBE0000820DF000850
:1009B40070B59EB00024254626460321474A484880
:1009C4000BF0C5FA8DF80D408DF80E400122454814
:1009D4000DF10F0102F02EF8012874D1721E9DF85A
:1009E4000F30052A06D8DFE802F00309101825287D
:1009F400552B6DD0AA3B5E425E41E7E7642B8CBF6A
:100A0400002603268DF80D30E0E79DF80D508DF893
:100A14000E30002D5ED10526D8E705F178016A1C59
:100A24000DEB010505F8643C9DF80D301546934225
:100A3400F1DDCBE71C460626C8E701220DF10D01C6
:100A44004FF6FF7044EA03240BF091FB01220DF1F1
:100A54000E010BF08CFB9DF80D2003461AB105A97D
:100A64000BF085FB0346A34226D19DF80E30012BE3
:100A74000CD1022204A91046ADF81040FFF77EFE07
:100A840003212346184A16480BF06AFA9DF80E30E3
:100A9400022B03D09DF80D30452B01D0002695E79D
:100AA4009DF81B300321114A0D480BF059FA04211B
:100AB40005A80AF0A0FEF1E702210D4A08480094B7
:100AC4000BF058FAEAE700210A2009F01BFC7DE745
:100AD40002267BE70025042678E700BF10E1000822
:100AE40090D800080000002045E1000877E10008E4
:100AF400B8E1000808B5064A022106480BF027FAB7
:100B0400022106200AF008FF6FF01B0008BD00BF99
:100B1400EAE1000890D8000808B501460022002345
:100B240004480CF04FF918B1FFF7E4FF6FF01B0015
:100B340008BD00BF3C01002000B593B00321094A61
:100B440009480BF004FA4FF0FF324FF0FF336946C7
:100B5400064807F05FFD0028F5D145226946FFF7F6
:100B64000DFEF0E70FE2000890D800083C010020D9
:100B7400F0B589B045480CF012F940B94448012158
:100B8400444A0BF0E4F96FF0120009B0F0BD42489A
:100B94000CF005F918B30E213F48FFF7B1FE3F48AA
:100BA4000CF0FDF808B30D213C48FFF7A9FE374CC3
:100BB4003B4EA368B34202D23A4DAB421BD24FF430
:100BC400E473394A39493A480AF023FF39493A4823
:100BD4000AF01FFF4FF4E47133480AF011FF0221B9
:100BE400364A2B480BF0B3F9D9E70221344A284896
:100BF4000BF0ADF9DBE79B6C1BB1002220463149B9
:100C04009847A368B3422FD2AB422DD39B6A002BE3
:100C140038D12D49042000F069FD00260027002466
:100C240005254FF48062CDE90667CDE90354CDE98B
:100C34000144264B26490094264808F01DFC4FF435
:100C44008062CDE90667CDE90354CDE90144224B26
:100C540022490094224808F00FFC0D480321214A40
:100C64000BF075F9204690E740F25B130E4A0F49EA
:100C74000F480AF0CEFE0F490F480AF0CAFE40F2B0
:100C84005B11A9E701489847C3E700BF60D2000899
:100C940090D8000833E2000880D10008B8D10008D9
:100CA400B8D700086CD7000863DD0008E3DD00084E
:100CB400B5DD0008D5F2000820DF00084FE2000887
:100CC40066E200080D0800081D0B00083D0B000833
:100CD40040200020D0020020B50900084024002054
:100CE400500300207DE20008F8B52A4E3478002C29
:100CF4004DD148B103785A1ED2B2FD2A08D9012138
:100D0400254A26480BF02CF96FF015042046F8BD4F
:100D1400012707C8224D85E80700224A147582F886
:100D2400204082F82C40137017720432D2E8EF3F4F
:100D3400C2E8E14F0029F9D100F076FD044628B15C
:100D4400194A012115480BF002F9DFE700F030FBE6
:100D5400044608B1154AF4E72B7A4BB100F0B0FC15
:100D6400044608B1124AECE73846124900F0BEFCCA
:100D740000F030F9044608B10F4AE2E7012333706A
:100D84002B7803210D4A05480BF0EAF8BEE76FF013
:100D94007704BBE735180020A7E20008E0D7000875
:100DA400D0120020A0120020C5E20008E2E20008F0
:100DB400FCE20008B7B7000812E3000833E30008B8
:100DC40038B50E4B1B7893B10D4D2B7893B900F0C9
:100DD40073F9044630B101210A4A0B480BF0B7F805
:100DE400204638BD01232B700321084AF5E74FF054
:100DF400FF34F5E76FF07704F2E700BF3518002001
:100E0400341800205BE30008E0D7000876E300080C
:100E140000487047D0120020431EDBB2FD2B02466F
:100E24000BD80020064B197A11B11978914206D0DB
:100E34000130042803F10C03F5D14FF0FF30704763
:100E4400A0120020002330B504461846064A814209
:100E540009DD157A15B11578255401300133042BB9
:100E640002F10C02F3D130BDA012002000220D4B80
:100E7400197A79B1197881420CD10C210A4B01FB02
:100E84000233D3E8EF0F421CC3E8E12F0029F8D165
:100E9400C0B270470132042A03F10C03E8D10020E8
:100EA400704700BFA0120020A412002010B570B932
:100EB400124840F28553124A12490AF0AAFD124818
:100EC4000AF0A7FD40F285510D480AF099FD8368A8
:100ED4000E4A934206D20E4A934203D3BDE8104011
:100EE400DB69184740F28553054A0A4903480AF06A
:100EF40090FD094909480AF08CFDE3E7B5DD0008D7
:100F040092E30008A2DD0008D2DD00081CD7000827
:100F1400C0D60008C2E30008E805010820DF000885
:100F2400482210B5A4B000210DEB02000CF01CF80F
:100F34000321194A19480BF00AF8194C0023D4E884
:100F4400EF2F012A03D1C4E8E13F0029F7D103D1EF
:100F5400032105200AF0E0FC4FF0FF324FF0FF338D
:100F6400104812A907F056FB0028E7D1694612A8D9
:100F740000F00EFB034648B102210B4A07480AF071
:100F8400EFFF022107200AF0C7FCD7E701216846DA
:100F940000F01AFAD2E700BFF8E4000808D8000805
:100FA400F0120020680100200FE5000808B50022B7
:100FB400002306480BF006FF38B10122044BD3E8A6
:100FC400EF1FC3E8E02F0028F9D108BD6801002015
:100FD400F012002010B5FFF71BFF044688B14068EB
:100FE40078B14FF0FF32264BC3E90022C3E9022255
:100FF4001A610BF0D4FE40B90121224A22480AF0BA
:10100400A6FF6FF01204204610BD606870B91F4837
:1010140040F2C3431E4A1F490AF0FBFC1E480AF073
:10102400F8FC40F2C3411A480AF0EAFC83681B4A00
:10103400934212D21A4A93420FD30421DB68984791
:1010440004460028DFD010F1860F12D00121034698
:10105400144A0D480AF084FFD5E740F2C3430C4A12
:1010640011490A480AF0D5FC104911480AF0D1FC8C
:10107400D7E701210F4A04480AF069FFC3E700BF1C
:10108400DC12002024DC000808D80008B5DD0008C4
:1010940092E30008A2DD0008D2DD00081CD7000896
:1010A400C0D600082AE50008C2E30008E8050108E4
:1010B40020DF000848E500082DE9F04F8FB0FFF766
:1010C400A7FE047A0546624E0DF12C0AC4B1002233
:1010D4000124CDE90B228DF8344053465D49406824
:1010E40004F084F90028034630606CDA5A4A214639
:1010F4005A480AF035FF346820460FB0BDE8F08F37
:101104000DF1280904214846FFF79CFE3746B046F6
:101114004FF0010B0990099BA34222DC504A53462D
:1011240007CA8AE8070000224A49686804F05EF9A1
:101134000028034646F8240045DA0121494A474875
:101144000AF00EFF4FF000084FF0FF39A0452CD0F5
:1011540068683968FFF7AAFE08F1010847F8049B9C
:10116400F4E74FF47F4319F804200C9312020B9216
:101174008DF834B0534600223649686804F036F9D5
:10118400002848F8040B1CDA04F138036B4413F804
:10119400103C01210090344A30480AF0EBFE4FF035
:1011A40000084FF0FF39A04502D156F82840A3E7C4
:1011B40068683968FFF77AFE08F1010847F8049B6C
:1011C400F1E70134A7E7686870B9284840F29B4307
:1011D400274A28490AF01DFC27480AF01AFC40F265
:1011E4009B4123480AF00CFC8368244A934219D299
:1011F400234A934216D35B6898470446F0B9002209
:1012040000230024CDE9062305234FF48062CDE9B1
:101214000334CDE901441B4B1B4900941B4808F0DF
:101224002BF969E740F29B43114A19490F480AF028
:10123400F0FB184918480AF0ECFBD0E710F1780FDE
:10124400DDD001210346154A04480AF089FE53E71C
:10125400DC120020B10F00086FE5000808D8000870
:10126400BCD80008C4E5000892E50008B5DD000814
:1012740092E30008A2DD0008D2DD00081CD70008B4
:10128400C0D60008250F000840280020D003002005
:10129400C2E30008E805010820DF0008EAE50008C9
:1012A4002DE9F047A6B00646DDE930A40F46914685
:1012B4009846FFF7ADFD0546002866D04368002B2D
:1012C40063D030460AF06EFA002861D03C2C62D814
:1012D40014B1BAF1000F61D03F2200210DF10E00CC
:1012E4000BF042FE9DF8B83030468DF80A301123D9
:1012F4008DF808908DF80D308DF809808DF80B70FD
:101304008DF80C60FFF7B2FD9DF8BC308DF80E002F
:101314008DF80F308DF84C4024B12246514604A874
:101324000BF015FE297A41B1002102A800F04CF817
:101334000024204626B0BDE8F087482214A80BF00C
:1013440013FE14A902A800F0C1F8044630B101212B
:101354000346144A14480AF003FEEAE768684FF4A7
:101364007A72CDE90044002314A903F099FF0446DE
:101374000028DED0012103460C4A0B480AF0F0FD98
:10138400022106200AF0C8FAD3E76FF01204D0E76E
:101394004FF0FF34CDE76FF07904CAE76FF015041E
:1013A400C7E700BF11E6000810D800082CE60008C3
:1013B40008B54FF40072002102480BF0D5FD00205F
:1013C40008BD00BFF4120020F7B504460E46FFF72F
:1013D4001FFD0746E0780AF0E5F9002844D1E578D6
:1013E400A5F1FF035D425D413B7A53B1E0780AF019
:1013F400D9F910B1E378FF2B03D13146204600F030
:1014040081F9002D2ED06178A57807293AD125B924
:10141400E379082B2AD0092B2ED0294B0022184619
:101424001E78002E46D0E6785F78B74201D0FF2EB2
:1014340040D19E788E423DD1DE78AE423AD11F79BA
:10144400E679B74236D100EB0213D3E902212046F4
:101454009047034630B1E2790221009219481A4AB2
:101464000AF088FD03B0F0BD0125BDE7204603B0B6
:10147400BDE8F04000F0D4B8204603B0BDE8F04029
:1014840000F008B9062DC8D1042908D1E379022B4C
:10149400C3D1204603B0BDE8F04000F089BA012969
:1014A400BBD1E379032BB8D1204603B0BDE8F040AB
:1014B40000F0B0BA0132202A03F11003B0D1D1E711
:1014C400F4120020E8D7000848E600082DE9F341AB
:1014D4000F46064628B96FF01508404602B0BDE82D
:1014E400F0810029F7D090F844303C2B4AD8019180
:1014F40003790093C3788278417800780AF08EF9F2
:1015040080460028E7D10D237B7196F844400434CB
:10151400E4B2082C2AD90C2C2AD9102C2AD9142C40
:101524002AD9182C2AD9202C2AD9302C8CBF0F2543
:101534000E253D7173793B72B3797B72F379BB727B
:1015440096F84420FA722AB106F1080107F10C005A
:101554000BF0FDFC0D4B5A5D9442BED204F1080021
:101564000021121B38440BF0FFFCB6E72546E0E7E8
:101574000925DEE70A25DCE70B25DAE70C25D8E7A1
:101584000D25D6E76FF07908A7E700BF3A190108DF
:10159400F8B50D46044618B96FF015063046F8BD87
:1015A4000029F9D0437903F00503052B02D06FF02D
:1015B4004606F3E70379194A0F2B28BF0F23D75C9C
:1015C400032F02D86FF07906E8E700680AF03FF9C4
:1015D40006460028E0D10B79002BE8D0CB78002B0D
:1015E400E5D0237A4B71627A8A71A27ACA71E27A5F
:1015F4003C2A81F84420E5D8D11CB942E2DA112B07
:1016040008D1002ACAD004F10C0105F108000BF03E
:101614009EFCC3E76FF07A06C0E700BF3A190108E1
:1016240030B5C3780446FF2B85B008D10379154A39
:101634000221154805B0BDE830400AF091BC90F88D
:101644004430042B01D0114AF2E700F10805284682
:101654000AF0E2F894F844300922CDE90253002359
:10166400CDE90032072305222179E078FFF718FE3F
:1016740030B1237901210090054A03480AF07AFC2D
:1016840005B030BD7EE60008F8D70008A1E60008E2
:10169400C1E6000890F84430042B04D00221034A28
:1016A40003480AF05DBC08300AF0B6B8E3E6000867
:1016B400F8D70008014B1860704700BFF4140020ED
:1016C40010B50024064BC3E90044C3E902441C617D
:1016D4000321044A04480AF03AFC204610BD00BF26
:1016E400F814002010E7000800D8000804289DBF63
:1016F400034B43F8201000206FF01500704700BF23
:10170400F8140020F7B50446C0780D46FF280ED122
:101714000126154FF3B2AB4204D057F826300BB173
:10172400204698470136052EF4D103B0F0BD0F4B87
:101734001B6863B19847FF280AD1FF2DF5D0E378E1
:10174400022100900A4A0B480AF014FCEDE701203C
:10175400A842EAD0044B53F82030002BEFD02046A7
:1017640003B0BDE8F0401847F8140020F41400203A
:1017740031E7000800D8000810B50446FFF74CFB19
:10178400031EA3BF4FF4E872534303480020A4BFD1
:10179400C454C01810BD00BF500400202DE9F0430C
:1017A40089B00446002504AF07F10409884601887E
:1017B40048461646C7E90155BD810AF020F86388FA
:1017C400A18807F10800FB800AF019F8A16807F165
:1017D4000A000AF018F80A230222CDE9029306232C
:1017E4003146CDE90032404605230322FFF758FD78
:1017F40088B16C468AB004AA094BC2E90760C2E901
:101804000538052342F8103F4FF422512B46054872
:1018140001F016FEA5461437BD46BDE8F08300BFAF
:1018240082E70008F0D70008F8B5002637460D4CCB
:1018340004F5C2700BF0D5FA20252346013D9F80A4
:1018440003F10C03FAD184F8987104F5D0700649B9
:10185400013607F08DFC042E04F5E874E8D128461F
:10186400F8BD00BF500400207FB800082DE9F04700
:10187400804616460D4600AF002964D0FFF77CFF72
:101884000446002862D000F5C2794FF0FF324FF0D1
:10189400FF33484609F0EDFF0BF03CFB0A2200231E
:1018A400FEF7CEFC4FF0FF3100224FF00C0E04F196
:1018B400040A0EFB02F33AF803C0AC4525D101211A
:1018C4004FF6FF7C2344D97119899E7161451CBF71
:1018D400013119810C2303FB0243D860484609F007
:1018E400CAFF6C468AB06A461A4BCDE90756CDE961
:1018F4000538052342F8103F174800234FF42251BE
:1019040001F09EFD0020A54610E0BCF1000F03D1BC
:10191400B1F1FF3F08BF11460132202AC9D14B1C47
:1019240007D1484609F0A7FF6FF01B00BD46BDE88C
:10193400F0870C2303FB01440123A580E371A67106
:101944002381E060CAE76FF01500EFE74FF0FF3046
:10195400ECE700BFBAE70008F0D7000870B5054609
:10196400FFF70AFF0446D8B100F5C2764FF0FF3204
:101974004FF0FF33304609F07CFF2246002104F586
:10198400C07391800C329A42FBD1304609F073FF48
:1019940005482B460321054A0AF0E2FA002070BDEF
:1019A4004FF0FF30FBE700BFF0D70008E7E700087F
:1019B40070B50546C078FFF7DFFE044628B300F58E
:1019C400C2764FF0FF334FF0FF32304609F051FF3B
:1019D40094F8983153B1EB7802210C4A0C480AF080
:1019E400BFFA3046BDE8704009F045BF012284F8D3
:1019F40098212A7904F5D07084F89921C4F89C318F
:101A04000022002307F064FCEBE770BD08E800083F
:101A1400F0D7000813B50446C37802790321009275
:101A24000448054A0AF0A6FAE07802B0BDE810407E
:101A3400FFF794BFF0D7000852E800082DE9F84FEB
:101A4400044609F079FFB0FA80F0C0F11F0004EBFE
:101A54008006D6F81090CD0005F1040A0B46063531
:101A64008FB2B9F1000F0AD10121E26881400A4323
:101A7400E260336124F80A706753BDE8F88F4FEAD7
:101A8400C906043634F806B04FEACB0808F1060854
:101A940034F8083099450CD001210A4A0A480AF062
:101AA40056FA002383F31188BFF36F8F042318467B
:101AB40002DF24F80AB024F8059024F80870A7532C
:101AC400DBE700BF8EE8000860D80008B2F5802F7D
:101AD4002DE9F8430ED33E4940F20A333D4A3E48CD
:101AE40009F097FF3D4809F094FF40F20A31394864
:101AF40009F086FF042A0CD8394940F21133354ADB
:101B0400354809F086FF374809F083FF40F2113168
:101B1400EDE7043ACD1D114425F0070521F0070631
:101B2400A6EB0508B8F1170F4FEAD8070CD82E49D1
:101B340040F21D33274A284809F06BFF294809F071
:101B440068FF40F21D31D2E7B7FA87F44FF000097D
:101B5400C4F12002C4F12404A4000734E408631C83
:101B6400BB420560AF60C5F80C900CD91F4940F228
:101B74003333184A184809F04CFF1A4809F049FF52
:101B840040F23331B3E74946920005F110000BF0FF
:101B9400EBF9A2B2530043F001036B803B1B9BB2F1
:101BA40005EBC4015800A5F80090488025F83420BE
:101BB400A6F8029025F8083005EBC7035A88214699
:101BC40042F001025A802846BDE8F843FFF736BFC9
:101BD4000DE90008B2E80008B5DD000823E90008B3
:101BE4003AE900085BE9000874E900089DE9000887
:101BF40008B5024809F0F7FE002008BDD0E9000846
:101C04000E4A0346904202D30D4A904211D30D4A24
:101C140022B1934202D30C4A93420AD30B4A52B1E3
:101C24000B48834234BF01200020934238BF002078
:101C34007047012070471046704700BF58D0000815
:101C4400A8190108000000000000000000000000C6
:101C5400000000002DE9F04F054691B0994602F0CE
:101C640004030293C2F3C2030133AC070E461046C9
:101C7400DDF868A0049340F0C5812C1D002D3DD1F2
:101C840001F00706341DC6F1080600274FF0FF33A4
:101C94004FF004080193BB46434600F0020109F1EA
:101CA400FF320397009705910DB1C4F80090049892
:101CB400002809DC4846CDE90632FFF7A1FFDDE93B
:101CC4000632002800F0BE800598002800F0E58068
:101CD4000120A4EB050CBCF5007FC0F0B980944949
:101CE4004FF42273934A944809F093FE934809F001
:101CF40090FE4FF422718F4809F082FE0729C4D860
:101D04006FF01B0011B0BDE8F08F7A285BD84B2828
:101D14000FD8472857D829282ED8252850D052D84C
:101D2400202818BF23280CBF4FF0010B4FF0000BE5
:101D340071E04C382E2846D8DFE800F06D45454563
:101D4400454545454545454548454545454545453C
:101D540045564548485656566D486A456D45184897
:101D64001845457F7C48454548457C0000204FF098
:101D7400000B4FF0040835E001212A38C0B201FA03
:101D840000F010EA0E0F46D110F0625C2CD110EA7C
:101D9400010B40D06046013C4444B4FBF8F408FB1A
:101DA40004F425B1A3EB050CA444B445A8D8002839
:101DB40000F08E8004995AF8049B0139049173E76A
:101DC4000199013901914FF0000B24E012F8010C44
:101DD4006C2834D1002012F8023C83466C2BC8D105
:101DE4004FF008084346D6E70AF1070A2AF0070A23
:101DF400073424F00704FAE802BC35B106982044FD
:101E0400B0423FF67DAFC4E900BC4FF0000B08348C
:101E14004FF00808434612F8010F002871D0BBF1B7
:101E2400000F7FF472AF2528F5D14FF0010B019B11
:101E3400013301934FF00408ECE7584697E700207C
:101E44008346A8E70599A4EB050C00297FF443AF6A
:101E540000990F290CD9364940F28D23354A36486A
:101E640009F0D7FD364809F0D4FD40F28D2142E750
:101E7400F5B10099CCF3870C40310DEB010E0199BB
:101E84000EF820CC0EF8101C70B16CF07F0C0EF81C
:101E940020CC0137009801300090C5F108014FF6BD
:101EA400DA7E04340691B6E7039801300390F1E733
:101EB40008B10136EEE7029902360029EAD1484614
:101EC400CDE90632FEF7D6F9DDE906320644E1E74C
:101ED400042B08D10AF1040015B1DAF800102160CE
:101EE4008246043497E70AF1070323F0070303F15A
:101EF400080A1DB1D3E90001C4E90001082308342C
:101F040089E7631BB3F5806F0CD3094940F2DE23E4
:101F1400084A094809F07DFD0A4809F07AFD40F2B3
:101F2400DE21E8E685B9A6F10804E018EAE600BF78
:101F3400990C01080BEA0008B5DD000839EA00082D
:101F44005AEA000874EA0008029A9B0828602B7079
:101F54009DF80C30BAB1EB70AF7037B1002208A80D
:101F6400C5F1010C009B93420FD14FF0000AC5F15B
:101F740001030DF1200801930DF1300B009B534533
:101F840012D1601BBEE66B70E6E710F8013B190640
:101F940008D50CEB040EB64503F07F033FF6B0AE54
:101FA40004F8013B0132DDE71FB198F90020002A53
:101FB40017DB029BD3B11AF80B2004F8012B002283
:101FC400019B18191044B0423FF69AAE98F80000ED
:101FD400494604F8010B204603920AF0B8FF039A1D
:101FE40014440AF1010A08F10108C7E798F800202F
:101FF400029B55F8229045F822304846FEF73AF9FC
:10200400421CDDE76FF00D007CE600BF2DE9F04FC8
:1020140099B000AF8B460446C7E90C32D7F888A0C4
:1020240058B9AC4940F2A533AB4AAC4809F0F1FCCD
:1020340040F2A531A84809F0E3FC49B90378467891
:10204400807800EB830020445E4520D8A0EB040B8D
:102054000AF00103A6787B62E378002E0CBF4FF0F0
:1020640000090AF00109FB6213B11AF0020F17D13B
:10207400B9F1000F14D17B6B1BB1594620463A6B62
:1020840098475D4628466437BD46BDE8F08F451C39
:102094002846FEF7EFF8013028440BF1010BD3E793
:1020A400CAF3C003BB6123783B629B007B61636816
:1020B400FB613B6A04EB83017B6B002B7CD15D46A7
:1020C4000E44B9F1000F1ED088469946DFF810B2CD
:1020D40018F8013B54F82300002808BF5846FEF7BF
:1020E400C9F8D7F88C3001304BB1D7F89030994506
:1020F4003EBFD7F88C3023F8190009F10109B04527
:102104000544E5D146461AF0050F0CBF022301230E
:102114004FF000087B630AF0020AFB6A9845B1D2CB
:102124007378023654F823B05846FFF769FDBA694C
:1021340003460AB3386316F8021CF86909F032FC46
:102144003B6BC8B1EB468AB06A46664B0593FB69A4
:10215400CDE906314FF40073ADF82030624B42F8FC
:10216400103F00234FF41251604801F069F9DD4635
:10217400023D08F10108D0E723B17B6A2BB97B6BE0
:10218400ED1AF6E7BAF1000FF3D05548BBF1000F92
:1021940018BF5846FEF76EF8D7F88C3053B1D7F80D
:1021A400903099453FBFD7F88C20431C22F8193052
:1021B40009F101090544DCE7B9F1000F0BD0102E39
:1021C4001AD94B4940F22D43434A444809F021FCB3
:1021D40040F22D412EE7002E76D01AF0040F76D06F
:1021E400102E6DD943494FF487633B4A3B4809F0AD
:1021F40010FC4FF487611DE7B1464FF0000807F16A
:1022040040003246B9620AF0A2FEB96A8B19BB6279
:1022140000230AF002023A610AF00402FA60FA6A40
:10222400934269D36378796A1AF0020FFB614B44D5
:1022340018BF0022DBB208BF4FEA5802002940F061
:10224400DA801AF0040F14BF414600216370A170B4
:10225400E27020463A6B79697B6B9847051EFFF65E
:1022640011AF3B6A41462370FB693A6B6370FB6AAA
:10227400A670E37007F150007B6B9847B0F100083B
:10228400C0F2ED807B69FA6AB86A03EB420131441B
:102294003A6B7B6BABEB010198470028C0F2E180FD
:1022A400A84408EB00054FF0000807F1400AC845B0
:1022B400C0F0A38000213A6B08467B6B9847E1E6A7
:1022C400B04607F150009CE7B046B1469EE7C846C9
:1022D4009CE700BF92EA00080BEA0008B5DD00089D
:1022E4008BEA0008ADEA000804000001D8D7000812
:1022F40050EB00086FEB0008BB60BB6A13F8021BCD
:1023040013F8015CBB6254F82500FFF779FC024620
:10231400B869BB6830B1F8697A6009F043FBD7E962
:10232400012350BB5AB37A6A62B1B9F10F0F35D9A0
:102334004D4940F261434D4A4D4809F06AFB40F271
:10234400614177E6FA68C2B1B8F10F0F09D949497A
:1023540040F26643454A464809F05BFB40F2664159
:1023640068E608F1280107F1380008F1010201EBE1
:10237400000808F8105C5FFA82F801334FE73A6905
:10238400C2B1B9F10F0F09D9374940F26F43374A47
:10239400374809F03EFB40F26F414BE609F1280152
:1023A40007F1380009F10102014401F8205C5FFAE9
:1023B40082F9E2E7B8F10F0F09D92E4940F27443CC
:1023C4002A4A2B4809F025FB40F2744132E608F111
:1023D400280007F1380C604408F1010200F8101CD1
:1023E40007F1600108F1020851FA82F25FFA88F8F5
:1023F40002F8105CC1E7002128E718F80A3054F805
:1024040023B087F83F30D7F88C3033B3D7F8903007
:10241400984522D2D7F88C3033F8186001213A6BF2
:102424007B6B07F13F00984700281ADB124B0544E9
:10243400BBF1000F08BF9B4626B95846FDF71AFFAB
:10244400461CB6B2314658463A6B7B6B9847002817
:1024540007DB054408F1010829E70026DEE74546C5
:1024640010E605460EE600BF8FEB00080BEA0008F5
:10247400B5DD0008AEEB00088BEA0008014B1860DC
:10248400704700BF1400002038B50D4604462022D2
:1024940000210AF069FD0022EB68E361AB68A361E7
:1024A4002B6823626B68A26263622A6923B1591E96
:1024B400194208BF42F0010222610122002104F105
:1024C4002C000AF095FC48B1054906483023064A19
:1024D40009F09FFA3021044809F092FA38BD00BF90
:1024E40005EC0008B5DD0008DFEB00082DE9F04F2E
:1024F400002789B0CDE90123436A04468B4288460C
:10250400BA460597079754D300F11406EFF31185E3
:10251400102383F31288BFF36F8F3046A94608F067
:10252400DDF858B98F234D4A4D494E4809F071FAE8
:1025340031464D4809F06DFA8F2163E0304608F0CA
:102544002DF9079A2AB13946204609F048FB0023A1
:10255400079306A9204609F069FA0699834641457E
:1025640030D32268236A204613F8221003EB820A30
:1025740021F0030103F822102168424609F07AFA97
:10258400E3682060984218D04FF0000B304608F002
:10259400B3F850B389F31188BFF36F8F059929B14C
:1025A400A2690AB12046904700230593BBF1000FAE
:1025B400ACD1504609B0BDE8F08F236943F008035D
:1025C4002361E1E718B1204609F06EFADEE7DDE9A0
:1025D4000132134339D003910AF038FC0399A0BBAC
:1025E4009DBB304608F088F878B940F23D131B4A89
:1025F4001E491C4809F00DFA31461D4809F009FA34
:1026040040F23D11154809F0FBF985F31188BFF339
:102614006F8F04F12C00DDE9012306F0C5FA83462F
:10262400EFF31189102383F31288BFF36F8F3046C1
:1026340008F054F800283FF475AFBBFA8BFB304622
:1026440008F0ACF84FEA5B1BA0E7204607AB05AAED
:10265400276809F048FA834698E700BF0EEC0008A3
:102664003BEC0008B5DD000850EC000866EC0008FF
:102674007DEC00082DE9F0410446C36908460E4686
:10268400984704F114050746EFF31188102383F3E8
:102694001288BFF36F8F284608F020F868B98F239B
:1026A4001A4A1B491B4809F0B4F929461A4809F08B
:1026B400B0F98F21154809F0A3F9284608F06EF8FF
:1026C40033783A4643F0010333706168204609F0D9
:1026D400D1F96060204609F09DFA284608F00CF80C
:1026E40068B940F23D13094A0C490A4809F091F9C6
:1026F40029460B4809F08DF940F23D11DAE788F3D9
:102704001188BFF36F8FBDE8F08100BF0EEC0008A5
:102714003BEC0008B5DD000850EC000866EC00084E
:102724007DEC00082DE9F0470446002700F114066B
:10273400EFF31188102383F31288BFF36F8F3046B1
:1027440007F0CCFF054668B98F23394A39493A481E
:1027540009F05FF93146394809F05BF98F213448B3
:1027640009F04EF9304608F019F82369A1681807F2
:1027740002D46368994200D9636A5B1A002B41D082
:10278400206A10F8213000EB810913F003023CD0D9
:10279400022A04D150F821205FEA920A05D1DA070F
:1027A40020D44846E36998478246A16852462046A9
:1027B40009F060F95146A060204609F069F92F46F6
:1027C400304607F099FF10BB40F23D13184A1C49EC
:1027D400194809F01EF931461A4809F01AF940F26D
:1027E4003D11BCE743F0020300F82130E369484699
:1027F400A568984729460246204609F03BF900257A
:10280400A060DDE71D46A946DAE71546FBE788F335
:102814001188BFF36F8F002D8AD137B1B9F1000F42
:1028240003D104F12C0006F05FF94846BDE8F087B7
:102834000EEC00083BEC0008B5DD000850EC000885
:1028440066EC00087DEC00082DE9F0410446C369FC
:1028540008460D46984704F114060746EFF311881D
:10286400102383F31288BFF36F8F304607F036FFCF
:1028740068B98F23274A2849284809F0CAF83146FD
:10288400274809F0C6F88F21224809F0B9F83046E4
:1028940007F084FF2B7823F001032B7023699B0737
:1028A40005D5E268236A03EB82039D4222D12B788B
:1028B40023F002032B70D4E90231994204D13A4641
:1028C400204609F0D7F8A0603946204609F0E0F820
:1028D400304607F011FF90B940F23D130D4A1149FB
:1028E4000E4809F096F831460F4809F092F840F284
:1028F4003D11C9E72B6867F39F032B60E8E788F372
:102904001188BFF36F8F04F12C00BDE8F04106F08D
:10291400EBB800BF0EEC00083BEC0008B5DD000886
:1029240050EC000866EC00087DEC000870B5044625
:1029340000F11405EFF31186102383F31288BFF31B
:102944006F8F284607F0CAFE68B98F231A4A1B49BD
:102954001B4809F05EF829461A4809F05AF88F21F5
:10296400154809F04DF8284607F018FF2369A068B8
:102974001B0702D46368834213D2646A241A28466C
:1029840007F0BAFE78B940F23D130B4A0E490C48E1
:1029940009F03FF829460D4809F03BF840F23D1193
:1029A400DEE71C1AEBE786F31188BFF36F8F201E56
:1029B40018BF012070BD00BF0EEC00083BEC0008FE
:1029C400B5DD000850EC000866EC00087DEC00085A
:1029D4002DE9F34106460F4615464FF000082A46F6
:1029E400304601A909F03BF9044640B10246394694
:1029F40001980AF0ACFA2D1BA0442744EFD14246BB
:102A04003046311D09F049F948B1074907484923BF
:102A1400074A08F0FEFF4921054808F0F1FF404647
:102A240002B0BDE8F08100BF05EC0008B5DD000888
:102A34009DEC00082DE9F34107460E4615464FF07C
:102A440000082A46384601A909F018F9044648B195
:102A54002EB10246019930460AF079FA26442D1B1C
:102A6400A044EED14246384607F10A0109F015F9AF
:102A740048B1074907486423074A08F0CAFF64219C
:102A8400054808F0BDFF404602B0BDE8F08100BF34
:102A940005EC0008B5DD00089DEC0008034A0020A1
:102AA400536823F002035360704700BF00400244A0
:102AB40008B541680F48104A83680C31934207D225
:102AC4000E4A934204D31B6883B96FF057000EE09B
:102AD400B6230B4A0B490C4808F09BFF0B490C48E2
:102AE40008F097FFB621064808F08AFF984700EAE5
:102AF400E07008BD10D100086CD7000850D700085A
:102B0400C8EC000802ED0008B5DD00087EEE000800
:102B140020DF0008082810B502D90024204610BD83
:102B2400044B53F8204020460AF039F90028F5D127
:102B3400F3E700BF84D9000810B5EFF31184102324
:102B440083F31288BFF36F8F1C4807F0C7FD68B981
:102B54008F231B4A1B491C4808F05BFF17491B487D
:102B640008F057FF8F21164808F04AFF134807F072
:102B740015FE174803683BB9164A516A41F0010132
:102B84005162516AC907FCD5013303600B4807F051
:102B9400B3FD68B940F23D13094A0F490A4808F0E9
:102BA40038FF06490D4808F034FF40F23D11DAE7DA
:102BB40084F31188BFF36F8F10BD00BFA4150020EC
:102BC4000EEC00083BEC0008B5DD000850EC0008F2
:102BD400A01500200008024466EC00087DEC000803
:102BE40010B5EFF31184102383F31288BFF36F8FB2
:102BF400254807F073FD68B98F23244A24492548E2
:102C040008F007FF2049244808F003FF8F211F48DC
:102C140008F0F6FE1C4807F0C1FD20490B680BBB09
:102C240001221F4BD3E8EF1F002903D1C3E8E02F93
:102C34000028F7D104D102211A4A1B4809F087F968
:102C4400114807F059FDC8B940F23D130F4A17491E
:102C5400104808F0DEFE0C49154808F0DAFE40F290
:102C64003D11D4E7012B08BF124803F1FF3302BF23
:102C7400426A22F0010242620B60E1E784F31188A8
:102C8400BFF36F8F10BD00BFA41500200EEC000829
:102C94003BEC0008B5DD000850EC0008A01500204E
:102CA4009C1500201DEF000878D8000866EC000889
:102CB4007DEC00080008024408B502F0E9F8044B72
:102CC400044A1A60044AD36A43F00103D36208BD7C
:102CD400A80000200048E8010008024408B558B9DB
:102CE4000749084840F23513074A08F092FE40F2BB
:102CF4003511054808F084FE4368587908BD00BFC3
:102D040096EF0008B5DD00085EEF000810B548B97D
:102D140008490948A023094A08F07BFEA021074876
:102D240008F06EFE03681B6913B1BDE81040184734
:102D3400184610BD96EF0008B5DD00085EEF0008E8
:102D44002DE9F843044606460127DFF8408094FA4B
:102D5400A4F5B5FA85F507FA05F308EB05156FEA4E
:102D6400030924EA03042B7B5BB12846FFF7CEFF5B
:102D740038B96B6804222846196806EA090609F07E
:102D840076F8002CE3D13046BDE8F883A0D80008DB
:102D940010B5002288B00E490E480AF0BDF8002292
:102DA40000230024CDE906230E234FF40062CDE96D
:102DB4000334CDE90144084B08490094084806F05F
:102DC4005BFB084906480AF047F8204608B010BDE6
:102DD400C92E00081810002001320008402C0020E1
:102DE400900B0020ADEF00082DE9F047DFF8B49018
:102DF4002D4C8046A9EB04038F2B0F460BD92B498E
:102E040040F253132A4A2B4808F003FE40F25311B0
:102E1400274808F0F5FD284809F005F8064660B390
:102E240000252846BDE8F087237B8BB12368DB6847
:102E34000BB1204698476368204683F806A0FFF745
:102E440065FFB0B9636804222046196809F00FF8D9
:102E5400013610344C4514D9184940F25F13144A12
:102E6400144808F0D6FD164808F0D3FD40F25F116F
:102E7400CEE70AFA06F31D43EAE705464FF0010AD6
:102E8400E8E7D1D3B8F1000FCBD0002DC8D0284645
:102E9400FFF756FF0546002FF7D00021642007F006
:102EA40031FAF2E7B0D80008A0D80008E2EF000831
:102EB400B5EF0008B5DD0008BC15002012F00008CD
:102EC40033F00008014805F00FBE00BFC001002028
:102ED400014B53F820007047BCD9000808B50346DD
:102EE40008462BB1044A136000F09AFD002008BD87
:102EF4006FF01500FBE700BF1800002010B5044C6C
:102F0400237813B9034805F0EFFD0123237010BDA6
:102F140036180020C001002010B50446094808F006
:102F240082FF3CB1084BD3E8EF1F0139C3E8E21F2D
:102F3400002AF8D1054808F00DF9BDE8104004480E
:102F440005F0D2BDB4150020B815002018100020DB
:102F5400C00100200022044BD3E8EF0FC3E8E12FA7
:102F64000029F9D1704700BFB415002070B5FFF7F0
:102F7400F1FF0546104C114EB4421AD9104940F2E3
:102F84001623104A104808F044FD104808F041FD8B
:102F940040F216210B4808F033FD2046FFF79EFE51
:102FA40028B123685B6813B129462046984710343A
:102FB400E2E7F2D370BD00BFA0D80008B0D8000883
:102FC40012F00008B5EF0008B5DD000833F0000882
:102FD40010B5044C04492046FFF756FA034B1C6015
:102FE40010BD00BFFC000020A8D90008A8150020CF
:102FF4000023154A10B51370144A4FF47A71136004
:10300400134A14481360FFF769FFFFF7E1FF124BFF
:10301400124918468B4215D9114940F22B13114A13
:10302400114808F0F6FC114808F0F3FC40F22B11AB
:103034000C4808F0E5FC1A1A5C681211013222717E
:103044001033E7E7F7D310BD37180020B41500207C
:10305400B81500203DBE0008A0D80008B0D800086C
:1030640012F00008B5EF0008B5DD000833F00008E1
:103074000146002200230148FFF738BAFC00002073
:103084000148FFF74FBB00BFFC000020024B014684
:103094001868FFF7D9BB00BFA81500200148FFF747
:1030A40045BC00BFFC00002070B52D4B1B78002BE5
:1030B40054D0FFF7E5FF044600283FD1294B2A4DA1
:1030C4001B68002B12DD09F025FF0A220023FDF7FF
:1030D400B7F8D5E90032C01A40F2E93361EB0201D6
:1030E400984271F1000101D3FFF740FFD5E90032A6
:1030F40013F57A7342F10002C5E9003274B3BDE8F6
:103104007040FFF7CBBF2846FFF7E8FD20B12B68DE
:10311400214628461B6898471035B54211D91349F2
:1031240040F20A23124A134808F073FC124808F0CC
:1031340070FC40F20A210E4808F062FC0F4D104E5C
:10314400EBE7E0D32046FFF7A1FF0E4BD3E8EF1FD8
:103154000139C3E8E21F002AB0D0F7E7002070BDB0
:1031640036180020B41500201010002012F00008BA
:10317400B5EF0008B5DD000833F00008A0D800085A
:10318400B0D80008B815002070B5154D297831BBAA
:103194000120FFF729FE134C134EB44218D91349EA
:1031A40040F2CF13124A134808F033FC124808F0D7
:1031B40030FC40F2CF110E4808F022FC2046FFF705
:1031C4008DFD18B1236820469B6898471034E4E7C6
:1031D400F4D3FFF769FF0028FBD101232B7070BDE6
:1031E40037180020A0D80008B0D8000812F0000852
:1031F400B5EF0008B5DD000833F000082DE9F84309
:10320400374F384BFB1A1B090AD1374940F2CF33E9
:10321400364A374808F0FDFB40F2CF31334819E015
:1032240000210846FFF7E0FD0446A8B14FF4FA7800
:103234004FF000092F4B1B789BB92F4940F24633BE
:103244002E4A2B4808F0E5FB2D4808F0E2FB40F23B
:1032540046312A4808F0D4FB4FF0FF384FF0FF39CD
:10326400E8E701F0FDF8274B274A1B58136033B1F8
:10327400264B1B68092B02DD254805F035FC00258B
:1032840044B12046FFF75CFD044618B94FF0FF38FF
:103294004FF0FF39FFF708FF064628B935B91C4837
:1032A40042464B4605F080FC3546E9E70D4D08E003
:1032B400F5D22B689B691BB100222846114698471A
:1032C4001035BD42F4D9134940F2C333074A0848C4
:1032D40008F09FFB104808F09CFB40F2C3319DE7C7
:1032E400B0D80008A0D8000852F00008B5EF0008D4
:1032F400B5DD00083A18002099F000086EF00008C7
:10330400ACF0000808000000B0150020B81500203B
:10331400C001002012F0000833F0000813B52C4857
:1033240008F081FD2B4B1B78002B35D0EFF3118473
:10333400102383F31288BFF36F8F274807F0CEF969
:1033440068B98F23254A2649264808F062FB22499A
:10335400254808F05EFB8F21204808F051FB1E48E9
:1033640007F01CFAFFF7A0FE1B4807F0C5F968B97F
:1033740040F23D13194A1D491A4808F04AFB164900
:103384001B4808F046FB40F23D11E5E784F3118841
:10339400BFF36F8F02B010BD164B1B68002BF9D022
:1033A40050B9002200231448CDE9002342F21072E0
:1033B400002307F073FEEDE70928EBD10E4807F070
:1033C400C9FE0E4802B0BDE8104005F08DBB00BF39
:1033D400B815002037180020AC1500200EEC0008AA
:1033E4003BEC0008B5DD000850EC000866EC000872
:1033F4007DEC0008B015002018100020C00100204A
:1034040010B5064B04461B6898472146A060044843
:10341400FFF730F9BDE81040FFF780BF1800002027
:10342400FC000020044A054B9B1AB1EBD30F34BFB8
:1034340052F8310000207047B8D70008A0D800081F
:103444002DE9F04F8FB0C1F34A2604AF0D469046E4
:10345400B8607B600C0D002E66D04FF000090A2383
:103464004FF0040B07F1140AFE60C7E90799C7F887
:1034740024900093CDF808B0CDF804A007F11C0304
:103484004A464046F968FEF7C1FDB0F5006F0346B1
:103494001CD36C468AB0D8F8041004AB2B481A46E7
:1034A400C3E9050140F2FF71D9614FF40071198439
:1034B400274B42F8103F4FF412514B462548FFF773
:1034C400BFFFA5462C37BD46BDE8F08FC0F30A0602
:1034D40004F11700184420F0070080083B60FFF750
:1034E400C7FD66F35325044630B33B6800F1100171
:1034F400C7E908390A23F961CDE901AB00934046D5
:10350400154AF96807F11C03FEF780FD002813DA59
:103514001249134840F24913124A08F07AFA40F269
:103524004911104808F06CFA04F1170020F0070064
:103534008008FFF79DFD044666F353252A4620467E
:103544007B68B96808F0B3FCBCE700BFDBF0000897
:103554000400000130D8000885BE000847F10008C7
:10356400B5DD00081AF100082DE9F04F87B00546D3
:10357400DDE9106BDDE9127A8846144699462FB3CB
:103584003B465A4610210020CDF800A0CDF814A0E7
:10359400FEF760FB00280BDA27494FF4BF73274A74
:1035A400274808F036FA4FF4BF71244808F028FA87
:1035B400B0F5006F01460BD340F2FF730221214A9C
:1035C400214807B0BDE8F04F08F0CABC3946384678
:1035D40004F0070305F00704E40044EA831444EA12
:1035E400402444EA065406F11700084420F007007A
:1035F40080080391FFF73CFD0546A0B19FB13B460F
:103604005A460399CDF800A01030FEF723FB00289A
:1036140009DA094940F2A313084A094808F0F9F9FC
:1036240040F2A311C1E74B4622464146284607B063
:10363400BDE8F04F08F03BBC46F100081AF1000861
:10364400B5DD000850F1000830D80008406820B10A
:10365400034BC01A40F3CF0070474FF0FF30704760
:10366400B8D700080EB403B503AB53F8042B0146D6
:103674000448019301F09AF902B05DF804EB03B039
:10368400704700BFA9360008CA0605D48B064CBF94
:1036940002490349FFF7E6BF704700BFB50F0108B1
:1036A40088F1000838B54B6805461A68CB680C46A3
:1036B4009A4202D1084608F077FC6368D3E8EF2FFA
:1036C400511CC3E8E01F0028F8D1A3689D54636827
:1036D4001A68E3689A4209D9054906487E23064ACE
:1036E40008F097F97E21044808F08AF9002038BDD3
:1036F400BAF10008B5DD00088BF100082DE9F04FA0
:103704008BB099469DF85870179B044607930D4655
:10371400DDE918A3DDF8688006920593002F00F018
:10372400AC808F4B042FDB5D08930BD98D494FF48C
:1037340018738D4A8D4808F06CF94FF418718A4853
:1037440008F05EF908F48073099308F08EFB08F022
:10375400020B024600285DD020468549FFF782FF10
:103764000646BBF1000F08D018F0440F54D12A4686
:1037740020468049FFF776FF064408F0010353B161
:103784007D4B204653F827207C4B7D49002A08BFF7
:103794001A46FFF767FF08F48073002B08F008034C
:1037A40018BF4FF00009002B62D0764B204653F827
:1037B40027207549FFF756FF0546069B2BB11A468D
:1037C40020467249FFF74EFF0544B9F1000F0CD0B3
:1037D400089B002B4FD06E496E4B042F18BF19461F
:1037E4004A462046FFF73EFF05446B483544079B95
:1037F400002B49D02246694908F0A3F8002843DA8F
:10380400674940F2BD23584A584808F002F940F28B
:10381400BD2194E70646A4E7624B18680028ABD0A4
:10382400614B4FF47A7B1B684FF03C0CB5FBF3F50E
:10383400B5FBF0F14FF4616300FB11550BFB05F58B
:10384400B1FBF3F2B5FBF0FE03FB121100FB1E55B6
:10385400B1FBFCF30BFB05F5B5FBF0F50CFB131109
:1038640020460091CDE901E55049FFF7FBFE83E7CF
:1038740008F00805A1E74749B2E7B9F1010F3D4651
:103884000CBF45484A48B2E7059B002B54D0DDF8ED
:1038940014904146B9F1100F204628BF4FF010098B
:1038A4000026FFF7F1FEB54218DC00263346204619
:1038B4001AF803203F49FFF7D5FE0136102E13D026
:1038C400720703D120463C49FFF7CCFEB14533468D
:1038D400EDD820463949FFF7C5FEEEE720463649C4
:1038E400FFF7C0FE0136DEE7002620463449FFF725
:1038F400B9FE33461AF803202046A2F120035F2BB9
:1039040028BF2E222F49FFF7ADFE0136102E0DD011
:10391400730703D120462849FFF7A4FEB145334677
:10392400E8D820462449FFF79DFEEEE7059BCA44EC
:10393400B3EB09030593AAD15FB118F0010F04D0CA
:1039440020460E4A0E49FFF78DFE41462046FFF7FA
:103954009BFE20460BB0BDE8F04F08F025BB00BF2E
:1039640072190108F8F100088BF10008B5DD0008B0
:1039740003F2000807F20008CCD90008EAF10008B5
:103984002CF20008E0D900082FF2000835F20008F4
:10399400EFF10008F3F10008A9360008B149000866
:1039A40039F20008C4150020C015002010F20008E8
:1039B400C7BF000842F200084AF2000848F20008B3
:1039C4004CF200084EF2000842F20F7373B58B42BA
:1039D40028BF0B4605680446052168460D4A07F0D2
:1039E40067FC0646636828460B225B680A4908F0B0
:1039F400CDFA63683246694628465B6808F0C6FA21
:103A040063681B2228465B68044908F0BFFA02B0C9
:103A140070BD00BFC1E50008661901084A19010814
:103A240000210123064A904206D8064A01B901231F
:103A34001360054B18607047012140085B00F2E7F2
:103A440040420F00C0150020C41500202DE9F843A2
:103A54000D460446114EDFF84880DFF848904718B9
:103A6400BC4202D12846BDE8F88314F8011BB368B0
:103A7400434505D24B4503D330465B689847EFE78F
:103A8400B823094A09490A4807F0C3FF09490A4803
:103A940007F0BFFFB821044807F0B2FF7CD200084A
:103AA400B8D700086CD7000863DD0008E3DD000820
:103AB400B5DD0008D5F2000820DF000810B5436822
:103AC4001C68094809F06BF948B908490848992362
:103AD400084A07F09EFF9921064807F091FF2368E2
:103AE4005B685C6010BD00BF7CD20008AFF20008C8
:103AF400B5DD000871F20008014B03600020704737
:103B040028DA000880B505460E461746984606F0A2
:103B1400F7FC034600F0A4FCDFF83C90044649F8A7
:103B24000030424639463046A8470C4B1B7873B9DF
:103B34000B4940F246330B4A0B4807F06AFF0B4827
:103B440007F067FF40F24631064807F059FF54F882
:103B5400090000F021FC00BF080000003A18002012
:103B640099F000086EF00008B5DD0008ACF000081C
:103B740008B50348034A0021121A08F099FA08BD4F
:103B8400D00100203C180020074808B5074A08491E
:103B9400121A08F08FFABDE808400648064A074999
:103BA400121A08F087BA00BF00000020D0010020DC
:103BB400A81901080000002000000020A81901082D
:103BC4002DE9F04706460C4600AF002936D0D1E96E
:103BD4000012E9468AB06D46A3684FF0050AE8462C
:103BE4001F48CDE90723CDE9050148F810AF0023AC
:103BF40042464FF421511B48FFF722FCD4E903123B
:103C0400CD466369AD461848C5E90723C5E90501F2
:103C1400C5F810A0002342464FF421511148FFF784
:103C24000FFCCD46E3690121104A0E4808F098F9CB
:103C3400A36901210E4A0B4808F092F9012E07D11D
:103C4400EFF305830B4A31460648103B08F088F928
:103C54002146304604F0B6F9BD46BDE8F08700BF02
:103C6400E3F2000858D8000812F3000841F30008F2
:103C740050F300087EF3000830BFFFF7FDBF00BF1C
:103C84002DE9F04105460B4EDFF82C80324606EB59
:103C94000807CC1B2046094909F059F9A0194246E6
:103CA4000021083C09F060F92C6707F10800BDE821
:103CB400F08100BF0000000004000000B0D800083C
:103CC40010B5244C2449254808F001FAA36A990147
:103CD4003ED52248224908F0FAF91E20A36ADA01E7
:103CE40004D51E481F4908F0F2F91F20194CA36A95
:103CF400DB0204D519481C4908F0E9F90220A36A3B
:103D04001C0304D51548194908F0E1F92120114C88
:103D1400A36A590304D51148154908F0D8F922209B
:103D2400A36A9A0304D50D48124908F0D0F9232058
:103D3400084CA36ADB0304D508480F4908F0C7F907
:103D44002420A36A6FEA03436FEA1343A36210BDFE
:103D54001D20C3E700ED00E091F3000858D80008E7
:103D6400A9F30008BCF30008D6F3000800F4000827
:103D74001EF4000843F400085DF4000870B506461C
:103D84000D46334C3349344808F0A1F9A36AD906E7
:103D94004DD53148314908F09AF91120A36A1A0720
:103DA40004D52D482E4908F092F91220284CA36A14
:103DB4009B0712D52B49284808F089F9636BA26A3E
:103DC400110609D50121284A234808F0C9F81EB173
:103DD400A36A23F08003A36213201D4CA36ADA07AD
:103DE40004D51D48214908F072F91420A36A9B06E2
:103DF40004D519481E4908F06AF91520144B9A6A2B
:103E0400D60602D49A6A940713D59B6AD90610D5AC
:103E1400184940F22D13184A184807F0FAFD1848BB
:103E240007F0F7FD40F22D11134807F0E9FD1020CB
:103E3400B4E7074B9A6A920642BF5A6A22F40052C8
:103E44005A629A6A42F0FF029A6200232B7070BD94
:103E540000ED00E088F4000858D800089EF400083B
:103E6400D1F40008E4F40008FCF4000812F500089A
:103E740031F5000892F5000860F50008B5DD00088A
:103E8400DCF5000870B506460D46284C284929483B
:103E940008F01DF9A36AD9043CD52648264908F040
:103EA40016F91720A36A1A0504D52248234908F0F5
:103EB4000EF918201D4CA36A9B0512D51D482049F4
:103EC40008F005F9A36BA26A100409D501211D4A63
:103ED400184808F045F81EB1A36A23F40043A3620E
:103EE4001920124CA36A590504D51248164908F042
:103EF400EEF81A20A36ADA050ED50E48134908F025
:103F0400E6F81B20094A936A43F47F439362002333
:103F14002B7070BD1620C5E7A36A9B04F2D5054833
:103F24000B4908F0D4F81C20ECE700BF00ED00E0DA
:103F340040F6000858D8000856F60008D1F40008E6
:103F440067F6000880F6000895F60008B0F6000849
:103F540031F50008F0B58BB07A4B0446586800255B
:103F640000AFC0F3080385F31188BFF36F8F02F02D
:103F74007F46B6F17F4F07D102F00C06082E12D10E
:103F84007149724808F0A3F8714940F21B43714A21
:103F9400714807F03EFD714807F03BFD40F21B41BC
:103FA4006C4807F02DFD16074CBF0C460125002C6C
:103FB400EAD00022FA71DA1E092A00F2A280DFE8B0
:103FC40002F005989B7BA0A0A0A0A09E64495F4836
:103FD40008F07DF800235B4EFB71F36A9A0705D560
:103FE40060495A4808F073F800232DE0F36A002B67
:103FF40001DA5D49F5E7F36A5B006DD55B49534827
:1040040008F065F87369A26943F480737361BFF3C0
:104014004F8FBFF36F8F32F8023C726922F48072C3
:104024007261BFF34F8FBFF36F8F03F47F42B2F51A
:104034005F4F2AD1DBB2022B27D1236801214C4ADE
:10404400424807F08DFF2368FA79DAB907F10806C8
:1040540004F1200C324620686168083403C26445C8
:104064001646F7D17A6A002D68D0C2F3080121B947
:104074006FEA52226FEA42227A62184607F1080177
:10408400FFF79EFD2C37BD46F0BD2E4B9A6AD2B287
:104094002AB10120F91DFFF771FE0346D4E79A6A9D
:1040A40012F47F4F04D00120F91DFFF7EBFEF4E773
:1040B4009B6AB3F5803F02D3FFF702FEEDE72D497B
:1040C40040F2ED23234A244807F0A3FC2A4807F0D2
:1040D400A0FC40F2ED2163E726494FF43C731D4AEE
:1040E4001D4807F096FC254807F093FC4FF43C71FB
:1040F40056E70020F91DCEE70020F91DD5E7204939
:104104006FE7204A6E4610F4F87F8AB01E4918BF44
:1041140011466A46103B07934FF400731B48ADF8F1
:1041240020301B4BCDE9050142F8103F00234FF42A
:1041340011510648FFF784F9B54655E76FF30802B5
:104144009AE700BF00ED00E0F6F6000858D8000832
:1041540021F7000860F50008B5DD000834F7000811
:1041640072F7000889F70008AAF70008B8F70008F2
:10417400D7F70008990C0108F3F7000817F80008AE
:1041840047F80008DDF60008C8F600086BF80008D8
:1041940004000001064B5A6942F010025A615A6940
:1041A40042F480625A615A6922F008025A617047E7
:1041B40000ED00E0EFF30880EFF3098101B57246EA
:1041C400FFF7C8FE01BD00BF0A4880F3088810202D
:1041D40080F3118808484FF40061401880F309887F
:1041E400EFF314800221084380F31488BFF36F8F28
:1041F40000F064F880450020403400201EF0040FD5
:104204000CBFEFF30880EFF30980816911F8021CF9
:104214000229FFD001B5724607F04EFF01BD00BF71
:1042240000B2002807DB01234109034A00F01F0004
:10423400834042F82130704700E100E038B54B1C60
:104244000F2B04460D460FD96B23104A1049114811
:1042540007F0DFFB294610480F23224607F0D9FB5D
:104264006B210A4807F0CCFB00B20028ACBF00F178
:1042740060400A4A4FEA0313DBB2ABBF00F561406A
:1042840000F00F0080F80033135438BD7EF80008A6
:10429400B5F80008B5DD0008D0F8000814ED00E01A
:1042A400044B054A23F07F039360BFF34F8FBFF3A2
:1042B4006F8F70470000000800ED00E008B5FFF7BD
:1042C400EFFF0B4AD2F8883023F47003C2F8883029
:1042D400EFF3148323F0040383F31488BFF36F8F85
:1042E400FFF746FCFFF750FC00F09CF803F0E0FFFA
:1042F40000ED00E042F8203C009B0B4942F81C3CD6
:10430400019B21F0010142F8183C029B42F8081C71
:1043140042F8143C4FF0807342F8043C0023203AE6
:1043240002654367704700BF093B000800B50D4BA9
:1043340015469860026F0C4B0E461A60036E83F3A9
:104344000B882C4686F309880020044B98472046A6
:10435400002100220023024C20470000F1C0000885
:10436400093B0008DC170020EC1500201022014B4B
:104374001A61704700ED00E0054B5A699B689A4248
:104384001FBF044A536843F080535360704700BF13
:10439400DC17002000ED00E0084B9B6883420BD142
:1043A400EFF3058343B1064B5A6842F080525A60DA
:1043B4005A6A22F400425A6205F0A4B8DC170020BD
:1043C40000ED00E014498A684FF030001044EFF328
:1043D400098C80E8F01F102080F31288BFF36F8FE0
:1043E4000E4F4FF000664A698A603E60106F0C4CB5
:1043F4002060506F0023536780F3118802F130006E
:1044040090E8F01F8CF3098802F1000004B507F06E
:1044140066FEBDE804407047DC17002004ED00E0B0
:10442400EC150020002310210348C2180133812B0E
:1044340082F80013F9D1704700E100E008B5EFF30A
:104444000583064A103B02EBC30152F83300496866
:104454008847BDE80840FFF78FBF00BFB4D200080B
:104464000148006870470000EC1500201FB50121C9
:10447400094B0A4A0A4800F00FF90023064A03933D
:10448400084B0121019301A8D31A029300F028F9E3
:1044940005B05DF804FB00BF00000420000000200C
:1044A40028DA0008D00100200A7A0B6810B562F3FC
:1044B40004031C46CB68520923F01F0343EA42035A
:1044C400044A43F00103C2F89800C2F89C40C2F8C1
:1044D400A03010BD00ED00E010B50A4BD3F89030C9
:1044E400C3F30723013B984208D901210346064A36
:1044F400064807F035FD6FF0150010BDFFF7D4FF37
:10450400FBE700BF00ED00E014F9000850D80008F4
:104514002DE9F04F8946144606464FF000084F4DEA
:1045240085B0C84527DAD6F804A0BAF1000F44D004
:10453400BAF11F0F17D91AF01F0F14D1D6F800B013
:104544001BF01F0F0FD1584607F0E4FD07460AEB96
:104554000B00013807F0DEFD874210D06FF015071D
:104564003F4A3B4601E043463E4A01213E4807F0AC
:10457400F7FC6FF01504204605B0BDE8F08F17F185
:10458400160FEDD0BC42EBDDC5F89870D5F89C1041
:10459400C5F89870D5F8A03021F01F0143F01F0B27
:1045A400D6E900321A44994202F1FF3A1AD1D345AE
:1045B40007D13146F8B207F0B6FD08F101080C3610
:1045C400AFE73146C5F89870D5F89C30E0B263F394
:1045D4000402C5F89C2007F0A6FD10F1160FC8D000
:1045E400441CEAE7C5F89870D5F8A020013B23F0F5
:1045F4001F0302F01F021343D3453146E0B2C5F84E
:10460400A030E8D007F08FFD10F1160FB1D0C5F837
:104614009870D5F89C209DF808300BF1FF3B62F3AD
:1046240004038DF80830D5F8A0309DF808205B0805
:1046340063F347128DF80820D6E90032134400933F
:1046440023F01F035B44A3EB0A03013023F01F0391
:104654006946C0B20393FFF73FFFBEE700ED00E0F9
:1046640060F900083AF9000850D800080522044B04
:10467400C3F89420BFF34F8FBFF36F8F704700BF11
:1046840000ED00E0BFF35F8F0022024BC3F89420DB
:10469400704700BF00ED00E038B50C4D0C462A7899
:1046A400FFF736FF287016300FD140F28913084AFD
:1046B4000849094807F0ADF92146084807F0A9F967
:1046C40040F28911024807F09BF938BD39180020DF
:1046D40083F90008990C0108B5DD0008B2F9000857
:1046E4002DE9F74F314D894606464FF00008AB4699
:1046F4002F4FC84502DB03B0BDE8F08FD6F804A005
:10470400BAF1000F4CD031680846019107F002FD60
:10471400019904460AEB0100013807F0FBFC8442CE
:104724004FF01402234B15D002FB08F36FF015026F
:104734004BF8032040F299131F4A2049204807F000
:1047440068F949461F4807F064F940F299111A487C
:1047540007F056F914F1160F2C60EBD01978A1422A
:10476400E8DD02FB08B0C7F89840C7F89840D7F8CE
:104774009C4000F10801007B64F304000871D7F841
:10478400A0000C79400860F347140C71D7F89C1012
:1047940021F01F016960D7F8A01021F01F012961E1
:1047A40008F1010814350C36A3E700BFF01500200A
:1047B40000ED00E03918002083F90008990C010885
:1047C400B5DD0008DEF900082DE9F0416B4D6C4EB3
:1047D400D5F890303468C3F307239C4286B013D9CC
:1047E40040F20223674A6849684807F012F9D5F88D
:1047F400902021466648C2F3072207F00AF940F2E6
:104804000221604807F0FCF80020FFF73BFF614BF2
:10481400C5F8C03084421BD15F4D01A82C70FFF74E
:104824006BF9002607464FF061085C4CB74216D17D
:1048340000202B785149D1F89020C2F307229342EB
:10484400C0F295800020FFF711FF06B0BDE8F081AB
:10485400716801EB0011FFF727FE0130DAE7019AD6
:10486400300102EB0613D3F80CC00CEA0401B1F1D9
:10487400807F57D00AD8B1F5001F29D0B1F5800F39
:1048840043D0B1F5801F14D00136CFE7B1F1006FEA
:1048940048D0B1F1805FF7D159689B681258013B49
:1048A40021F01F000344CDE9021223F01F0301226B
:1048B4000BE0596812589B68CDE902122122013B92
:1048C40021F01F00034423F01F038DF8102036E06D
:1048D400596812589B68CDE902124122013B21F02C
:1048E4001F00034423F01F031CF0010F8DF8102058
:1048F400059325D02A498423224A244807F089F8BD
:10490400284807F086F884217BE759689B68125889
:10491400013B21F01F000344CDE9021223F01F03E1
:104924000622D2E7596812589B6821F01F00013B08
:10493400CDE90212034423F01F038DF81080059380
:10494400287802A9FFF7C8FD00280CDA0E4940F2C6
:1049540035230C4A0D4807F05CF8134807F059F862
:1049640040F235214DE72B7801332B708CE7C1F8E9
:104974009830C1F8A00001335DE700BF00ED00E00E
:1049840034DA000883F90008990C0108B5DD000841
:104994000DFA0008AAFF4400391800200000F0FFB7
:1049A40041FA000867FA000896FA0008F0B587B0E3
:1049B40007460E4614460021102268461D4608F09C
:1049C400D3FA02238DF80230054B2A462146684665
:1049D400CDE90476019306F095FC07B0F0BD00BF65
:1049E4005DC1000808B5024B1B689847002008BD4C
:1049F40004160020034B044A1860937843F0020322
:104A040093707047041600202400002008B506495E
:104A1400064821F00701C1F1005202F58022FDF79A
:104A240055F8002008BD00BFA75A00200816002032
:104A340007B5124A92E80300CDE900011048114974
:104A440082688A4207D210498A4204D3126882B922
:104A54006FF057000FE0B6230C4A0D490D4806F0DD
:104A6400D8FF0D490D4806F0D4FFB621074806F0DB
:104A7400C7FF6946904703B05DF804FBC8D8000837
:104A840010D100086CD7000850D70008C8EC000803
:104A940002ED0008B5DD00087EEE000820DF000806
:104AA400024608B500F01F0301203F2A00FA03F371
:104AB40005D90C480C4907F06DFB002008BD1F2ADE
:104AC4000A4A09D8D16833EA0101F7D0126993433D
:104AD4000CBF01200020F1E7D16A33EA0101EDD0D7
:104AE400126BF4E728D80008CFFA0008002002442B
:104AF40008B5012300F01F013F28024603FA01F321
:104B040006D90848084907F045FB6FF0150008BDB1
:104B14001F28064A03D8D36013610020F7E7D36245
:104B24001363FAE728D80008CFFA000800200244EB
:104B34002DE9F041054600264FF001080E4F6B7831
:104B4400F4B2A34201D8BDE8F0812B781C4420467E
:104B5400FFF7A6FF68B12046FFF7CAFF57F83430C5
:104B64003BB107EBC40204F01F04516808FA04F0D7
:104B740098470136E3E700BF1416002008B510B1CA
:104B8400431E03420CD00E4960230E4A0E4806F021
:104B940040FF0E4806F03DFF60210A4806F030FF52
:104BA400B0FA80F0C0F11F000F2807DD0849612327
:104BB400044A054806F02DFF6121EEE7C0B208BDA6
:104BC40093FB000851FB0008B5DD0008C8FB000892
:104BD400F1FB0008014B23F810107047BC000020C3
:104BE40010B50446FFF7CAFF0C4B33F91000FF2839
:104BF40009D10B490B48CB230B4A06F00AFFCB2102
:104C0400094806F0FDFE094BD3F880201443C3F88D
:104C14008040BDE81040FFF703BB00BFBC0000208C
:104C24006DFC0008B5DD000851FB000800200244BB
:104C3400034AD2F8803023EA0003C2F88030704778
:104C44000020024408B5174B03291ED8DFE801F001
:104C5400020B0E161A6822EA00021A605A6822EA47
:104C640000025A6008BD1A680243F6E75A68024314
:104C74005A601A6822EA00021A60F3E71A680243CB
:104C84001A605A6810435860ECE7074907484FF424
:104C94008173074A06F0BDFE4FF48171044806F0A3
:104CA400AFFE00BF00200244990C0108B5DD0008E6
:104CB40051FB000838B50D461446FFF75FFF0A4B59
:104CC40053F83020AA4204D103EBC0014968A14241
:104CD40005D032B943F8305003EBC0035C600020C8
:104CE40038BD6FF00F00FBE71416002008B5FFF77E
:104CF40045FF0022034B43F8302003EBC0035A6006
:104D040008BD00BF14160020C300074AC0F3810089
:104D1400183052F8202003F018000F23834013406A
:104D240023FA00F0704700BF00200244411812D259
:104D34000A4B9862D962196821F4E0610A431A6047
:104D44001A6842F400621A60586810F00800FBD137
:104D54001022DA6070476FF08A0070470014034035
:104D640070B504460D46EFF31186102383F31288C1
:104D7400BFF36F8F194805F0B1FC68B98F23184A47
:104D84001849194806F045FE1449184806F041FE32
:104D94008F21134806F034FE104805F0FFFC20462E
:104DA4004FF480722946FFF7C1FF04460B4805F013
:104DB400A3FC68B940F23D13094A0D490A4806F0BC
:104DC40028FE06490B4806F024FE40F23D11E0E7B8
:104DD40086F31188BFF36F8F204670BD94160020B0
:104DE4000EEC00083BEC0008B5DD000850EC0008B0
:104DF40066EC00087DEC000870B504460D46EFF340
:104E04001186102383F31288BFF36F8F194805F0BE
:104E140065FC68B98F23184A1849194806F0F9FD4A
:104E24001449184806F0F5FD8F21134806F0E8FDF3
:104E3400104805F0B3FC20464FF400722946FFF7F2
:104E440075FF04460B4805F057FC68B940F23D1362
:104E5400094A0D490A4806F0DCFD06490B4806F0EC
:104E6400D8FD40F23D11E0E786F31188BFF36F8F60
:104E7400204670BD941600200EEC00083BEC0008A0
:104E8400B5DD000850EC000866EC00087DEC000875
:104E9400074B1A6822F004021A605A68D207FCD43D
:104EA4000222DA601A6842F001021A60704700BFF9
:104EB4000004034008B570B9114840F2AD33114AFB
:104EC400114906F0A6FD114806F0A3FD40F2AD31EC
:104ED4000C4806F095FD80680D4B984202D20D4BAC
:104EE40098420BD240F2AD33064A0B49044806F00F
:104EF40090FD0A490A4806F08CFDE7E7303008BD0A
:104F0400B5DD000892E30008A2DD0008D2DD000848
:104F14001CD70008C0D60008C2E30008E805010851
:104F240020DF000808B570B9114840F2BB33114ABC
:104F3400114906F06EFD114806F06BFD40F2BB31DD
:104F44000C4806F05DFD80680D4B984202D20D4B73
:104F540098420BD240F2BB33064A0B49044806F090
:104F640058FD0A490A4806F054FDE7E73A3008BDFF
:104F7400B5DD000892E30008A2DD0008D2DD0008D8
:104F84001CD70008C0D60008C2E30008E8050108E1
:104F940020DF00082DE9F04F1F465D889B8801350E
:104FA4001D44FB8887B01D44109B88469246BDF87B
:104FB4004490002B00F0EA80B9F57A7F80F0E68017
:104FC40070B9744840F26D33734A744906F021FD98
:104FD400734806F01EFD40F26D316F4806F010FD77
:104FE4008368704A934209D26F4A934206D39B6AFC
:104FF40005A9984770B16FF00400BBE040F26D332F
:10500400654A6A49634806F004FD6949694806F03F
:1050140000FDE0E7B9F1000F0AD1674B109A9A42FC
:1050240051D840F26B39654B9A4288BF4FF44879A6
:10503400059B6FF000400193109B5D43019BB3FB04
:10504400F5F5BAF808309D4238BF1D46109B03FBA6
:1050540005FB3B89AB4273DB019BB3FBFBF3009382
:10506400DDE900230BFB12334BBB4FF47A76009936
:10507400BDF8002001FB09F1B1FBF6F17B88BAF819
:105084000660B7F804E0511A89B20EEB0304B1428A
:105094000393BAF804C0BAF80230A4B2029615D940
:1050A400FE888E4228BF0E46511E891B89B28C424F
:1050B4000ED2161B013EFA88B6B2B24213D2109B2E
:1050C40001359B44C5E740F2EE29B1E7029EEBE7C8
:1050D4000CEB0304A4B28C424FD9121B013A96B2D2
:1050E400029AB242EBD8B3EB540F4FEA540203D204
:1050F400039B934228BF1346E21A92B296453ED2CE
:105104007246A4EB0E039BB24FF47A7104FB0114B4
:105114000099B4FBF1F4A14534BFA4EB0904A9EB55
:105124000404002CCBDBA042C9DD2046A8F80230E1
:10513400A8F80420A8F80660A8F80850002CBED1EE
:10514400B8F80630B8F804205B08934228BF134629
:10515400A8F80030BAF80020934203D93A889A425A
:1051640028BF1A466FF00043984208BF6FF08500CD
:10517400A8F8002007B0BDE8F08F0C46B3E79445CB
:1051840082BFA4EB0C0362469BB2BDE76FF015002F
:10519400F0E700BFB5DD000892E30008A2DD0008D7
:1051A400D2DD00081CD70008C0D60008C2E30008FE
:1051B400E805010820DF000800350C0020A10700E5
:1051C40008B570B9114840F2ED33114A114906F09F
:1051D40020FC114806F01DFC40F2ED310C4806F0AD
:1051E4000FFC80680D4B984202D20D4B98420BD2B3
:1051F40040F2ED33064A0B49044806F00AFC0A491A
:105204000A4806F006FCE7E7483008BDB5DD0008AB
:1052140092E30008A2DD0008D2DD00081CD70008D4
:10522400C0D60008C2E30008E805010820DF000832
:1052340008B570B9114840F20343114A114906F008
:10524400E8FB114806F0E5FB40F203410C4806F088
:10525400D7FB80680D4B984202D20D4B98420BD27B
:1052640040F20343064A0B49044806F0D2FB0A49BC
:105274000A4806F0CEFBE7E7523008BDB5DD00086A
:1052840092E30008A2DD0008D2DD00081CD7000864
:10529400C0D60008C2E30008E805010820DF0008C2
:1052A4002DE9F04F89B002AF0C4692469946054667
:1052B400D7F840E060B93E4825233E4A3E4906F00F
:1052C400A8FB3E4806F0A5FB25213A4806F098FBCA
:1052D4008668DFF8ECC066450AD2DFF8E8C06645A8
:1052E40006D381B96FF015001C37BD46BDE8F08FB9
:1052F4002523304A34492E4806F08BFB3349344881
:1053040006F087FBE0E791F805C040F2FF7B1CF054
:10531400010C18BF6FF0604BD1F8008038EA0B0B1A
:1053240021D0BCF1000F1AD01D21082329486C4656
:105334008CB002AAC2E907134FF40073264D1385FB
:10534400264BC2E90550C2F8248042F8103F0023DE
:105354004FF451512248FEF773F8A546C2E70B21DA
:1053640003232048E3E7BEF1000F1BD107F1040833
:1053740001227146404607F03BFD1B4BCDF80480EB
:10538400009352464B46214628467669B04700288A
:10539400AAD14FF0FF324FF0FF33404603F004FC34
:1053A4007869A1E77C6CCDE900E47469A0479BE7C8
:1053B400B5DD000888FC0008A2DD0008D2DD000885
:1053C4001CD70008C0D60008C2E30008E80501089D
:1053D40020DF0008DCFC0008EEFC000806000001E9
:1053E400C0D70008E5FC000857C300082DE9F041C8
:1053F40000AF61B35BB3D3E900E41E7A40F2FF7CF3
:1054040016F0010618BF6FF0604C4EEA040838EA43
:105414000C0825D006B31D21082323486D468EB001
:105424006A46CDE90713CDE909E34FF400731F4E33
:10543400ADF830301E4BCDE905600B9442F8103FB7
:10544400002344F240411B48FDF7FAFFAD466FF0DC
:105454001500BD46BDE8F0810B2103231648DDE7A6
:1054640060B916486523164A164906F0D2FA16485A
:1054740006F0CFFA6521124806F0C2FA8468134D8B
:10548400AC4202D2124DAC420AD265230C4A1149F5
:105494000A4806F0BEFA1049104806F0BAFAE9E7DD
:1054A400A469A047D5E700BFDCFC00081BFD000889
:1054B40008000001C0D70008E5FC0008B5DD0008BD
:1054C40088FC0008A2DD0008D2DD00081CD7000813
:1054D400C0D60008C2E30008E805010820DF000880
:1054E4002DE9F34104460E4615469846FFF7E2FCC3
:1054F40007462046FFF716FD084A0346954209D899
:105504003A4631462046CDE90058FFF743FD02B044
:10551400BDE8F0816FF01500F9E700BF40420F00CD
:105524002DE9F34104460E4615469846FFF748FE1A
:1055340007462046FFF77CFE084A0346954209D8F1
:105544003A4631462046CDE90058FFF723FD02B024
:10555400BDE8F0816FF01500F9E700BF00127A0092
:1055640070B504460D46FFF7A5FC06462046FFF736
:10557400D9FC31460246284606F0BCFE40BB74B94D
:1055840015484FF4BD73154A154906F042FA1548FB
:1055940006F03FFA4FF4BD71104806F031FAA368E3
:1055A400114A934208D2114A934205D32946204610
:1055B400BDE870401B6918474FF4BD73074A0C4996
:1055C400054806F026FA0B490B4806F022FAE1E7F3
:1055D4006FF0850070BD00BFB5DD000888FC0008D1
:1055E400A2DD0008D2DD00081CD70008C0D60008E0
:1055F400C2E30008E805010820DF00082DE9F041B6
:105604000D46044670B91E484FF4CD731D4A1E4919
:1056140006F0FFF91D4806F0FCF94FF4CD71194866
:1056240006F0EEF987681A4B9F420FD2194B9F423E
:105634000CD3FFF7C5FD06462046FFF7F9FD7F6C46
:1056440002467FB96FF05700BDE8F0814FF4CD7387
:105654000C4A11490A4806F0DCF91049104806F0D2
:10566400D8F9DAE73146284606F044FE28B9294637
:1056740020463B46BDE8F04118476FF08500E3E75C
:10568400B5DD000888FC0008A2DD0008D2DD0008B2
:105694001CD70008C0D60008C2E30008E8050108CA
:1056A40020DF000808B5074A62230749074806F0C7
:1056B400B0F90749074806F0ACF96221014806F041
:1056C4009FF900BF68FD0008A4FD0008B5DD0008CF
:1056D4002EFF000820DF000837B543680D469B699C
:1056E4001B689847044630B1012100902B46034AB9
:1056F400034806F03FFC204603B030BD3EFF0008DF
:10570400C8D7000837B543680D469B695B6898475E
:10571400044630B1012100902B46034A034806F0A9
:1057240029FC204603B030BD61FF0008C8D700083B
:105734002DE9F04F0446904699B09A4643684822B2
:10574400894606A80021DF6907F00EFC4146204681
:1057540003AAFFF7C1FFC0B9DFF86CB1039E73065B
:1057640013D0C6F3052606EBC60109EBC10189B2C5
:1057740004AA08232046019106F0EFFD0199024690
:1057840030B15249524806F0FCFD19B0BDE8F08F23
:105794009DF81630C3F303008DF81C009DF8130028
:1057A40003F00F02850642BF9DF81D5045F0020527
:1057B4008DF81D509D0642BF9DF81D5045F004050F
:1057C4008DF81D50DB0642BF9DF81D3043F00803E1
:1057D4008DF81D30050648BF9DF81D309DF8175003
:1057E40044BF43F010038DF81D30400605F07F05DB
:1057F4001FD5049BC3F31C0306939DF81D3043F08F
:1058040001038DF81D301BF80230402B56D89DF84B
:105814001D20920713D493B10333083108AA2046FC
:1058240003F4FE7389B206F098FD024638B12949A3
:10583400A8E7BDF81230C3F38A030693E3E79DF8A3
:105844001D3013F0010F4FEAC50328D0BA7BAA42DA
:105854000BD8214940F21533204A214806F0D9F8E3
:1058640040F215311D4806F0CBF8BA6852F83550AD
:1058740013445A6815B1204606A9A8473246514632
:105884002046FFF73FFF00287FF47FAF41462046C4
:1058940003AAFFF721FF00283FF460AF75E77A7B86
:1058A400AA4209D80F4940F21A330C4A0C4806F0B0
:1058B400B0F840F21A31D5E77A68D7E701210A4AED
:1058C400034806F05CFDD9E79719010885FF000835
:1058D400C8D70008ACFF0008FBFF0008D1FF000890
:1058E400B5DD0008130001082B0001082DE9F34180
:1058F400054606694FF0FF3210364FF0FF3330464D
:1059040006F044FD1821284601AAFFF7E5FE0446E7
:1059140048BB019A182122F0100228460192FFF791
:10592400F1FE0446F8B902F05DFA1821074601AA0F
:105934002846FFF7D1FE0446A8B9DFF84C80019B46
:105944001B0710D502F04EFAC01B404512D9019A2C
:10595400182142F0100228460192FFF7D3FE041EDC
:1059640008BF6FF00A04304606F012FD204602B06C
:10597400BDE8F0811821284601AAFFF7ADFE0028F2
:10598400DDD00446EFE700BF00366E0170B5046950
:10599400054623790E462BBB10344FF0FF324FF0EF
:1059A400FF33204606F0F2FCF3883288013B013ACB
:1059B40003F07F0343EA4263B2883189013A120259
:1059C40002F47F421343094A013902EA014228469C
:1059D4001C211A43FFF796FE0546204606F0D8FC24
:1059E400284670BD6FF00F05FAE700BF0000FF0105
:1059F4002DE9F74FD0F81080054698F80430D0F818
:105A040004A0002B40F08380DAF8000018B3836808
:105A1400404AD8F8001093420FD23F4A93420CD325
:105A24001B6898470446B0B13C4902463C4806F01E
:105A3400A8FC204603B0BDE8F08F4F23394A3A4909
:105A44003A4805F0E6FF3A493A4805F0E2FF4F21AB
:105A5400344805F0D5FF2E694FF0FF3210364FF071
:105A6400FF33304606F092FC1821284601AAFFF7BE
:105A740033FE0446C8B9019A182122F001022846CF
:105A84000192FFF73FFE044678B907F043FA01AAF2
:105A94000746894628461821FFF71EFE044620B90A
:105AA40040F2E93B019BDB0716D4304606F070FC5C
:105AB4004CB31B482246204906F063FCDAF8000088
:105AC4000028B6D08368134A93421AD2124A9342EA
